:1000000009C016C054C014C013C012C012C010C022
:100010000FC00EC011241FBECFE9CDBF20E0A0E667
:10002000B0E001C01D92A236B207E1F74DD065C025
:10003000E7CF1F921FB61F9211248F939F93809139
:100040006000909161000196909361008093600040
:1000500080916000909161008634910571F08091EB
:100060006000909161008834910539F080916000C2
:10007000909161008E34910551F488B391E0892705
:1000800088BB9F918F911F901FBE1F9018958091E4
:100090006000909161008035910599F788B391E0F7
:1000A000892788BB1092610010926000EACF8F937D
:1000B0008FB78F939F9388B394E0892788BB9F91D4
:1000C0008F918FBF8F9118958FEF86BF8FB582600C
:1000D0008FBD89B7846089BF83B7856083BF80E2A5
:1000E0008BBF82E085BB87B3856087BBB998C19A17
:0E00F00088B38A7F88BB7894FFCFF894FFCF47
:00000001FF
