:1000000009C016C015C044C013C012C012C010C031
:100010000FC00EC011241FBECFE9CDBF20E0A0E667
:10002000B0E001C01D92A236B207E1F73DD055C045
:10003000E7CF1F921FB61F9211248F939F93809139
:100040006000909161000196909361008093600040
:100050008091600090916100019791F4C09A809125
:100060006000909161008F3F910521F41092610032
:10007000109260009F918F911F901FBE1F90189546
:1000800080916000909161000A9749F7C098E7CF8E
:100090001F921FB61F9211241092610010926000EF
:1000A0001F901FBE1F9018958FEF86BF8FB582607F
:1000B0008FBD89B7846089BF83B7836083BF80E2C7
:1000C0008BBF82E085BB87B3856087BBB998C19A37
:0E00D00088B38A7F88BB7894FFCFF894FFCF67
:00000001FF
