:1000000009C00FC00DC00CC00BC00AC009C008C099
:1000100007C006C011241FBECFE9CDBF0FD046C018
:10002000EFCF8F938FB78F939F9388B394E08927F7
:1000300088BB9F918F918FBF8F91189582E087BB6E
:1000400081E088BB85B7836085BF8BB780648BBF39
:100050008BB78F7D8BBF78948EEF88BB2FEF37E205
:1000600093E2215030409040E1F700C00000C09A78
:100070002FEF3BED95E0215030409040E1F700C07C
:10008000000088BB2FEF3BED95E0215030409040C1
:10009000E1F700C00000C09A2FEF3BED95E0215042
:1000A00030409040E1F700C00000D7CFF894FFCF78
:00000001FF
