:1000000009C016C015C014C013C012C012C010C061
:100010000FC00EC011241FBECFE9CDBF20E0A0E667
:10002000B0E001C01D92A236B207E1F725D033C07F
:10003000E7CF1F921FB61F9211248F939F93809139
:100040006000909161004E9741F488B391E0892758
:1000500088BB1092610010926000809160009091C6
:100060006100019690936100809360009F918F9151
:100070001F901FBE1F9018958FEF86BF8FB58260AF
:100080008FBD89B7846089BF83B7846083BF81E0F7
:0A00900087BB7894FFCFF894FFCFF0
:00000001FF
